:10120800C105202835303030303030303030303083
:1012180030303030303030303030303030303030C6
:10122800303030303030303030303000000522304F
:101238003030303005273030303030052C30303009
:101248003030025F0000013100015E00023300000F
:10134A007F647E001213107F381213967F0E1213D9
:0B135A00967F011213967F800213960D
:101396008F7B121365857BA0C280121308C2827FE1
:0613A600057E0002131099
:1013AC008F7B121365857BA0D280121308C2827FBB
:0613BC00057E0002131083
:1012DC008B088A09890A8D0BE50BD39400401CAB53
:1012EC0008AA09A90A120C20FF1213AC7401250AD2
:0C12FC00F50AE43509F509150B80DD2228
:1013650075A0FFC280D281C28212130CD28230A72F
:0A13750006C282D28280F7C28222F3
:08130800C281D2827F057E0044
:10131000D3EF9400EE64809480400DE4FD0DBD0594
:08132000FCEF1F70EB1E80E8DA
:0113280022A2
:10132900D3EF9400EE648094804015E4FCFD0DBD7C
:1013390000010CBC01F8BD7EF5EF1F70E31E80E0D3
:011349002281
:10137F005389F0438902E4F58CF58A758CE7F58A79
:07138F00D2A9D2AFD28C22DB
:0313E20002137F74
:03000B000212A13D
:1012A100C0E0C0D0E531B40110E55F456024FF9294
:1012B10084C2859286C2878013E531B4020EC2844E
:1012C100E55F456024FF9285C28692876360FF6374
:0B12D1005FFFC28DD28CD0D0D0E03285
:100C5700C284C285C286C287C2941213E2755E7FC0
:100C6700438920758DF3438780759850D28ED2982B
:030C770012134A0B
:100C7A00E4F561F562F563F564F56DF56E7F801252
:100C8A001396E599643E6014C3E5629428E56164AD
:100C9A0080948050073098FDC29880E63098FDC253
:100CAA0098E599643E603CC3E5629428E5616480F6
:100CBA009480502F3098FD74352562F8A699E599ED
:100CCA00B42C14E56E25E02465F8A66108A6620531
:100CDA006EE56E7002056D0562E56270020561C21D
:100CEA009880BEE5682401F564E43567F563E56834
:100CFA002406FFE43567FEC3E5649FEE6480F8E5E9
:100D0A0063648098501DAF6474352FF8E6FEEFC314
:100D1A009568FD74212DF8A6060564E56470CF0573
:100D2A006380CBE56A2401F564E43569F563E56A15
:100D3A002406FFE43569FEC3E5649FEE6480F8E5A6
:100D4A0063648098501DAF6474352FF8E6FEEFC3D4
:100D5A00956AFD74262DF8A6060564E56470CF052C
:100D6A006380CBE56C2401F564E4356BF563E56CCF
:100D7A002406FFE4356BFEC3E5649FEE6480F8E564
:100D8A0063648098501DAF6474352FF8E6FEEFC394
:100D9A00956CFD742B2DF8A6060564E56470CF05E5
:100DAA006380CB7B007A0079221212598F728E717E
:100DBA008D708C6F7B007A0079271212598F768E8C
:100DCA00758D748C737B007A00792C1212598F7A84
:100DDA008E798D788C771213D5E4FBFA79107841E5
:100DEA001209A6500D7F301213ACE4F531C2840209
:100DFA000EFFAF72AE71AD70AC6F1213D5E4FBFA91
:100E0A00F97840120800C004C005C006C007AF76D2
:100E1A00AE75AD74AC73120A1FA804A905AA06AB75
:100E2A0007D007D006D005D0041209A66043404176
:100E3A00AF7AAE79AD78AC771213D5E4FBFA79E0E4
:100E4A0078401209A660174015E4F5317F31121374
:100E5A00ACD284C285D286C287D29402108C7F66B5
:100E6A001213ACE55F456024FF92947531010210BC
:100E7A008CAF72AE71AD70AC6F120A1FE4FBFAF957
:100E8A007840120909C004C005C006C007AF76AE93
:100E9A0075AD74AC73120A1FA804A905AA06AB079C
:100EAA00D007D006D005D0041209A6604D404BAF3A
:100EBA0072AE71AD70AC6F120A1FE4FBFAF978409A
:100ECA00120800C004C005C006C007AF76AE75ADF3
:100EDA0074AC73120A1FA804A905AA06AB07D007A7
:100EEA00D006D005D0041209A6500FE4F5317F329E
:100EFA001213ACD284C285020F9FAF76AE75AD7461
:100F0A00AC731213D5E4FBFAF97840120800C00456
:100F1A00C005C006C007AF72AE71AD70AC6F120AE1
:100F2A001FA804A905AA06AB07D007D006D005D08A
:100F3A00041209A6600F400DE4F5317F331213AC99
:100F4A00D284021043AF72AE71AD70AC6F120A1F39
:100F5A00E4FBFAF97840120909AB76AA75A974A8D4
:100F6A00731209A660364034AF72AE71AD70AC6FC1
:100F7A00120A1FE4FBFAF97840120800AB76AA7548
:100F8A00A974A8731209A65013E4F5317F34121319
:100F9A00ACC284D285C286C28702108CAF72AE718F
:100FAA00AD70AC6F1213D5E4FBFAF9784012080061
:100FBA00AB76AA75A974A8731209A660344032AF39
:100FCA007AAE79AD78AC771213D5E4FBFA79D0789A
:100FDA00401209A66010400EE4F5317F351213ACB9
:100FEA00C284D28580557F721213AC753102021009
:100FFA008CE4FBFAF97840AF72AE71AD70AC6F1247
:10100A000909AB76AA75A974A8731209A6603240B9
:10101A0030E4FFFEFD7C40AB72AA71A970A86F1282
:10102A000800AB76AA75A974A8731209A65012E42F
:10103A00F5317F361213ACC284C285C286D287804C
:10104A0041AF76AE75AD74AC731213D5E4FBFAF901
:10105A007840120800AB72AA71A970A86F1209A68B
:10106A006010400EE4F5317F371213ACC284D2858A
:10107A00800CE4F5317F381213ACC284C285D28663
:09108A00C2877F057E00121329C4
:03109300020C7AD2
:10080000EC4D6011E8497017ED33EC3304600DE4F2
:10081000FCFFFEFD22E933E8330470F8020A65129A
:100820000A3058046009E4CC24815006285009029B
:100830000A6F284003020A6CC0E0EB4A7044B9809A
:1008400006D0E0FB020A5BEF4E701CBD8008EBFF98
:10085000EAFEE9FD80EBE98DF0A4FEE5F00208E98F
:10086000E9CDF9EAFEEBFFEF89F0A4FCE5F0CE89D3
:10087000F0A42EFFE435F0CD89F0A42DFEE435F090
:100880008067EF4E7005BD80D780C3EF8BF0A4ACBE
:10089000F0EE8BF0A42CFCE435F0F8EF8AF0A42CF9
:1008A000E5F038FCE433CB8DF0A42CFCE5F03BF80C
:1008B000EE8AF0A42CFCE5F038F8E433CF89F0A4FC
:1008C0002CFCE5F038CF3400CE89F0A42FFFE5F002
:1008D0003EFEE433C98DF0A42EFEE5F039CD8AF05A
:1008E000A42FFFE5F03EFEE43DFD33D0E0FB5007D2
:1008F0000BBB000F020A6FEC2CFCEF33FFEE33FE54
:06090000ED33FD020A4781
:10090600020A6FEC5D046005E859047003020A658B
:10091600120A30580460F6EC4860F2EC7004FDFEF2
:10092600FF22C860DB2481C85009C39860025006C4
:10093600020A6C9850CAF582E9294B4A7005AB82C7
:10094600020A5B75F0007C1A7880C3EF9BEE9AED85
:1009560099400DC3EF9BFFEE9AFEED99FDE842F03C
:10096600DC23ACF0D0E0FFD0E0FED0E0FDAB82208F
:10097600E7101BEB60BAEC2CFCEF33FFEE33FEED19
:1009860033FD020A47E803F830E705C0F075F000CA
:10099600EF2FFFEE33FEED33FD40B830E7C280AAFD
:1009A60074F8CC6480CCC86480C8F58204604FC3F8
:1009B600EB9FF5F0EA9E42F0E99D42F0E89C45F097
:1009C600603C501DE5825FFFE582D313CB5BCBF421
:1009D6002B5582FB50280ABA002409B9002008804A
:1009E6001DE5825BFBE582D313CF5FCFF4C3132FE4
:1009F6005582FF50090EBE00050DBD00010CC3EB6C
:100A06009FF5F0EA9E42F0E99D42F0E89C45F060D1
:090A160007CC4820E701B3EC22F3
:100A1F00ED33EC33600A047003BD8004ECB2E7FCE5
:010A2F0022A4
:0D13D500ED33EC3360065004EC6480FC2224
:10125900D2008B7B8A7C897D121295C0E0FF121324
:10126900C2D0E040F31210A9400122ECC0E0EDC069
:10127900E0EEC0E0EFC0E0121295D0F0AFF0D0F090
:10128900AEF0D0F0ADF0D0F0ACF080D9E475F0015B
:08129900787B120C47020C20C7
:100A3000E9D2E7C933E833F892D5EDD2E7CD33EC0C
:070A400033FC5002B2D52285
:100A4700EC30E7100FBF000C0EBE00080DBD000410
:100A57000BEB6014A2D5EB13FCED92E7FD2274FFBC
:100A6700FCFDFEFF22E480F8A2D574FF13FC7D8015
:030A7700E480EF29
:10109600C201C202C203C204F9E4F57EF57FFCFD7B
:1010A600FEFFE91000EA20030CB42D04D203D3227C
:1010B600B42B02D32224D0504794095041240A303D
:1010C6000415F8857FF0740AA42872E74051C5F02C
:1010D600704D85F07FD322D202C0E0E4FBFA79207E
:1010E6007841120800ECF8EDF9EEFAEFFBD0E0FCDF
:1010F600E4120B7C120A813001B4157ED322240A35
:10110600200420B4FE0720011AD201D32224EB606A
:101116000424E0700EA2039201D204C203D322C3B8
:10112600020A65E430040BE57F300302F404A201F1
:1011360092033002EA257E20D2E5A2E7920450020D
:10114600F404B4260050D8CCC0E0EDC0E0EEC0E018
:10115600EFC0E0EC120BE0D0E0FFD0E0FED0E0FD07
:10116600D0E0FC20040512080080031209093003B0
:0611760003120A1FC32250
:100A7A00020A65E86480F8E933E83360110460F03B
:100A8A00ED33EC337009E8FCE9FDEAFEEBFF2204E2
:100A9A0060DED3EB9FEA9EE99DE8C2E78CF0C2F7DD
:100AAA0095F0400CE8CCF8E9CDF9EACEFAEBCFFBA9
:100ABA00120A3085D0F05804700320D5B3E80470C8
:100ACA00075002B2D5020A6F92D5EC0460F7E4CC63
:100ADA00C0E0C398F8603B94186008400DD0E0FB72
:100AEA00020A47E4FBFAC9FC8028E830E406E4C9B4
:100AFA00FBE4CAFCE830E305E4C9CACBFCE85407C6
:100B0A006010F8C3E913F9EA13FAEB13FBEC13FCD0
:100B1A00D8F130F52FC3E49CFCEF9BFFEE9AFEED73
:100B2A0099FDD0E0FBEF4E4D4C701222DB03020A16
:100B3A006CEC2CFCEF33FFEE33FEED33FDED30E7CA
:100B4A00EB020A47EF2BFFEE3AFEED39FDD0E0FB50
:100B5A0050130BBB0003020A6FED13FDEE13FEEFF9
:080B6A0013FFEC13FC020A4723
:100B720075F020800E75F010800575F0087D007EFE
:100B8200007F003392D530D503120C39EC3340107C
:100B9200EF33FFEE33FEED33FDEC33FCD5F0ED2207
:0E0BA200E5F0247EA2D513CC92E7CDCEFF2243
:100BB0003F8000004120000042C80000447A00004D
:100BC000461C400047C35000497424004B189680CF
:100BD0004CBEBC205A0E1BCA6753C21C749DC5AEC6
:100BE000FB60065407601C2323120C0EEB54386084
:100BF00009120BFA120C09120800ECF8EDF9EEFAE2
:100C0000EFCB22EB120C0980F1543803241C900B1B
:100C1000B0FE93FC0EEE93FD0EEE930ECE93FF22EC
:0300000002117C6E
:0C117C00787FE4F6D8FD75817F0211C376
:100C2000BB010689828A83E0225002E722BBFE02D2
:090C3000E32289828A83E4932205
:0E0C3900C3E49FFFE49EFEE49DFDE49CFC22CC
:100C4700FAE6FB0808E6F925F0F618E6CA3AF622AE
:1013C200EFC394094005EF940E4003BF2003D3807E
:0313D20001C32232
:10118800020C57E493A3F8E493A34003F68001F21A
:1011980008DFF48029E493A3F85407240CC8C33368
:1011A800C4540F4420C8834004F456800146F6DF37
:1011B800E4800B0102040810204080901208E47EAD
:1011C800019360BCA3FF543F30E509541FFEE4932C
:1011D800A360010ECF54C025E060A840B8E493A3F3
:1011E800FAE493A3F8E493A3C8C582C8CAC583CA1E
:1011F800F0A3C8C582C8CAC583CADFE9DEE780BED6
:011258000095
:00000001FF
